{
  "contractName": "SignatureVerifier",
  "abi": [
    {
      "constant": true,
      "inputs": [
        {
          "name": "message",
          "type": "string"
        }
      ],
      "name": "getHash",
      "outputs": [
        {
          "name": "",
          "type": "bytes32"
        }
      ],
      "payable": false,
      "stateMutability": "pure",
      "type": "function"
    },
    {
      "constant": true,
      "inputs": [
        {
          "name": "_messageHash",
          "type": "bytes32"
        }
      ],
      "name": "getEthSignedHash",
      "outputs": [
        {
          "name": "",
          "type": "bytes32"
        }
      ],
      "payable": false,
      "stateMutability": "pure",
      "type": "function"
    },
    {
      "constant": true,
      "inputs": [
        {
          "name": "hash",
          "type": "bytes32"
        },
        {
          "name": "v",
          "type": "uint8"
        },
        {
          "name": "r",
          "type": "bytes32"
        },
        {
          "name": "s",
          "type": "bytes32"
        }
      ],
      "name": "recoverAddress",
      "outputs": [
        {
          "name": "",
          "type": "address"
        }
      ],
      "payable": false,
      "stateMutability": "pure",
      "type": "function"
    },
    {
      "constant": true,
      "inputs": [
        {
          "name": "hash",
          "type": "bytes32"
        },
        {
          "name": "signature",
          "type": "bytes"
        }
      ],
      "name": "recover",
      "outputs": [
        {
          "name": "",
          "type": "address"
        }
      ],
      "payable": false,
      "stateMutability": "pure",
      "type": "function"
    }
  ],
  "bytecode": "0x608060405234801561001057600080fd5b50610982806100206000396000f3fe60806040526004361061005c576000357c01000000000000000000000000000000000000000000000000000000009004806319045a25146100615780632f4ea5ea146101735780635b6beeb9146101c25780638428cf831461029e575b600080fd5b34801561006d57600080fd5b506101316004803603604081101561008457600080fd5b8101908080359060200190929190803590602001906401000000008111156100ab57600080fd5b8201836020820111156100bd57600080fd5b803590602001918460018302840111640100000000831117156100df57600080fd5b91908080601f016020809104026020016040519081016040528093929190818152602001838380828437600081840152601f19601f82011690508083019250505050505050919291929050505061033a565b604051808273ffffffffffffffffffffffffffffffffffffffff1673ffffffffffffffffffffffffffffffffffffffff16815260200191505060405180910390f35b34801561017f57600080fd5b506101ac6004803603602081101561019657600080fd5b8101908080359060200190929190505050610361565b6040518082815260200191505060405180910390f35b3480156101ce57600080fd5b50610288600480360360208110156101e557600080fd5b810190808035906020019064010000000081111561020257600080fd5b82018360208201111561021457600080fd5b8035906020019184600183028401116401000000008311171561023657600080fd5b91908080601f016020809104026020016040519081016040528093929190818152602001838380828437600081840152601f19601f8201169050808301925050505050505091929192905050506103b9565b6040518082815260200191505060405180910390f35b3480156102aa57600080fd5b506102f8600480360360808110156102c157600080fd5b8101908080359060200190929190803560ff1690602001909291908035906020019092919080359060200190929190505050610436565b604051808273ffffffffffffffffffffffffffffffffffffffff1673ffffffffffffffffffffffffffffffffffffffff16815260200191505060405180910390f35b60008060006103498585610565565b91509150610356816105eb565b819250505092915050565b60008160405160200180807f19457468657265756d205369676e6564204d6573736167653a0a333200000000815250601c01828152602001915050604051602081830303815290604052805190602001209050919050565b6000816040516020018082805190602001908083835b6020831015156103f457805182526020820191506020810190506020830392506103cf565b6001836020036101000a038019825116818451168082178552505050505050905001915050604051602081830303815290604052805190602001209050919050565b600060606040805190810160405280601c81526020017f19457468657265756d205369676e6564204d6573736167653a0a3332000000008152509050600081876040516020018083805190602001908083835b6020831015156104ae5780518252602082019150602081019050602083039250610489565b6001836020036101000a0380198251168184511680821785525050505050509050018281526020019250505060405160208183030381529060405280519060200120905060018187878760405160008152602001604052604051808581526020018460ff1660ff1681526020018381526020018281526020019450505050506020604051602081039080840390855afa15801561054f573d6000803e3d6000fd5b5050506020604051035192505050949350505050565b6000806041835114156105a75760008060006020860151925060408601519150606086015160001a905061059b87828585610892565b945094505050506105e4565b6040835114156105d85760008060208501519150604085015190506105cd868383610908565b9350935050506105e4565b60006002819150915091505b9250929050565b600060048111156105f857fe5b81600481111561060457fe5b141561060f5761088f565b6001600481111561061c57fe5b81600481111561062857fe5b141561069c576040517f08c379a00000000000000000000000000000000000000000000000000000000081526004018080602001828103825260188152602001807f45434453413a20696e76616c6964207369676e6174757265000000000000000081525060200191505060405180910390fd5b600260048111156106a957fe5b8160048111156106b557fe5b1415610729576040517f08c379a000000000000000000000000000000000000000000000000000000000815260040180806020018281038252601f8152602001807f45434453413a20696e76616c6964207369676e6174757265206c656e6774680081525060200191505060405180910390fd5b6003600481111561073657fe5b81600481111561074257fe5b14156107dc576040517f08c379a00000000000000000000000000000000000000000000000000000000081526004018080602001828103825260228152602001807f45434453413a20696e76616c6964207369676e6174757265202773272076616c81526020017f756500000000000000000000000000000000000000000000000000000000000081525060400191505060405180910390fd5b6004808111156107e857fe5b8160048111156107f457fe5b141561088e576040517f08c379a00000000000000000000000000000000000000000000000000000000081526004018080602001828103825260228152602001807f45434453413a20696e76616c6964207369676e6174757265202776272076616c81526020017f756500000000000000000000000000000000000000000000000000000000000081525060400191505060405180910390fd5b5b50565b6000807f7fffffffffffffffffffffffffffffff5d576e7357a4501ddfe92f46681b20a0836001900411156108d15760006003819150915091506108ff565b601b8560ff16141580156108e95750601c8560ff1614155b156108fe5760006004819150915091506108ff565b5b94509492505050565b6000806000807f7fffffffffffffffffffffffffffffffffffffffffffffffffffffffffffffff85169150601b8560ff1c01905061094887828885610892565b93509350505093509391505056fea165627a7a7230582057729ce6043a064bda787245f4b7b2f2e2bed82732f37d4a91345e73edfe48130029",
  "source": "// SPDX-License-Identifier: MIT\r\npragma solidity >=0.4.22 <0.9.0;\r\n\r\ncontract SignatureVerifier {\r\n    enum RecoverError {\r\n        NoError,\r\n        InvalidSignature,\r\n        InvalidSignatureLength,\r\n        InvalidSignatureS,\r\n        InvalidSignatureV\r\n    }\r\n\r\n    function _throwError(RecoverError error) private pure {\r\n        if (error == RecoverError.NoError) {\r\n            return; // no error: do nothing\r\n        } else if (error == RecoverError.InvalidSignature) {\r\n            revert(\"ECDSA: invalid signature\");\r\n        } else if (error == RecoverError.InvalidSignatureLength) {\r\n            revert(\"ECDSA: invalid signature length\");\r\n        } else if (error == RecoverError.InvalidSignatureS) {\r\n            revert(\"ECDSA: invalid signature 's' value\");\r\n        } else if (error == RecoverError.InvalidSignatureV) {\r\n            revert(\"ECDSA: invalid signature 'v' value\");\r\n        }\r\n    }\r\n\r\n    function getHash(string memory message) public pure returns (bytes32) {\r\n        return keccak256(abi.encodePacked(message));\r\n    }\r\n\r\n     function getEthSignedHash(bytes32 _messageHash) public pure returns (bytes32) {\r\n        return keccak256(abi.encodePacked(\"\\x19Ethereum Signed Message:\\n32\", _messageHash));\r\n    }\r\n\r\n    /**\r\n    * @notice Recovers the address for an ECDSA signature and message hash, note that the hash is automatically prefixed with \"\\x19Ethereum Signed Message:\\n32\"\r\n    * @return address The address that was used to sign the message\r\n    */\r\n    function recoverAddress (bytes32 hash, uint8 v, bytes32 r, bytes32 s) public pure returns (address) {\r\n        bytes memory prefix = \"\\x19Ethereum Signed Message:\\n32\";\r\n        bytes32 prefixedHash = keccak256(abi.encodePacked(prefix, hash));\r\n        return ecrecover(prefixedHash, v, r, s);\r\n    }\r\n\r\n    function recover(bytes32 hash, bytes memory signature) public pure returns (address) {\r\n        (address recovered, RecoverError error) = tryRecover(hash, signature);\r\n        _throwError(error);\r\n        return recovered;\r\n    }\r\n\r\n    function tryRecover(bytes32 hash, bytes memory signature) internal pure returns (address, RecoverError) {\r\n        // Check the signature length\r\n        // - case 65: r,s,v signature (standard)\r\n        // - case 64: r,vs signature (cf https://eips.ethereum.org/EIPS/eip-2098) _Available since v4.1._\r\n        if (signature.length == 65) {\r\n            bytes32 r;\r\n            bytes32 s;\r\n            uint8 v;\r\n            // ecrecover takes the signature parameters, and the only way to get them\r\n            // currently is to use assembly.\r\n            assembly {\r\n                r := mload(add(signature, 0x20))\r\n                s := mload(add(signature, 0x40))\r\n                v := byte(0, mload(add(signature, 0x60)))\r\n            }\r\n            return tryRecover(hash, v, r, s);\r\n        } else if (signature.length == 64) {\r\n            bytes32 r;\r\n            bytes32 vs;\r\n            // ecrecover takes the signature parameters, and the only way to get them\r\n            // currently is to use assembly.\r\n            assembly {\r\n                r := mload(add(signature, 0x20))\r\n                vs := mload(add(signature, 0x40))\r\n            }\r\n            return tryRecover(hash, r, vs);\r\n        } else {\r\n            return (address(0), RecoverError.InvalidSignatureLength);\r\n        }\r\n    }\r\n\r\n     function tryRecover(\r\n        bytes32 hash,\r\n        bytes32 r,\r\n        bytes32 vs\r\n    ) internal pure returns (address, RecoverError) {\r\n        bytes32 s;\r\n        uint8 v;\r\n        assembly {\r\n            s := and(vs, 0x7fffffffffffffffffffffffffffffffffffffffffffffffffffffffffffffff)\r\n            v := add(shr(255, vs), 27)\r\n        }\r\n        return tryRecover(hash, v, r, s);\r\n    }\r\n\r\n     function tryRecover(\r\n        bytes32 hash,\r\n        uint8 v,\r\n        bytes32 r,\r\n        bytes32 s\r\n    ) internal pure returns (address, RecoverError) {\r\n        // EIP-2 still allows signature malleability for ecrecover(). Remove this possibility and make the signature\r\n        // unique. Appendix F in the Ethereum Yellow paper (https://ethereum.github.io/yellowpaper/paper.pdf), defines\r\n        // the valid range for s in (301): 0 < s < secp256k1n ÷ 2 + 1, and for v in (302): v ∈ {27, 28}. Most\r\n        // signatures from current libraries generate a unique signature with an s-value in the lower half order.\r\n        //\r\n        // If your library generates malleable signatures, such as s-values in the upper range, calculate a new s-value\r\n        // with 0xFFFFFFFFFFFFFFFFFFFFFFFFFFFFFFFEBAAEDCE6AF48A03BBFD25E8CD0364141 - s1 and flip v from 27 to 28 or\r\n        // vice versa. If your library also generates signatures with 0/1 for v instead 27/28, add 27 to v to accept\r\n        // these malleable signatures as well.\r\n        if (uint256(s) > 0x7FFFFFFFFFFFFFFFFFFFFFFFFFFFFFFF5D576E7357A4501DDFE92F46681B20A0) {\r\n            return (address(0), RecoverError.InvalidSignatureS);\r\n        }\r\n        if (v != 27 && v != 28) {\r\n            return (address(0), RecoverError.InvalidSignatureV);\r\n        }\r\n    }\r\n}",
  "sourcePath": "F:\\Blockchain\\digital-signature\\contracts\\SignatureVerifier.sol",
  "compiler": {
    "name": "solc",
    "version": "0.5.1+commit.c8a2cb62.Emscripten.clang"
  },
  "schemaVersion": "3.4.3",
  "updatedAt": "2021-11-01T03:31:43.863Z",
  "networkType": "ethereum",
  "devdoc": {
    "methods": {
      "recoverAddress(bytes32,uint8,bytes32,bytes32)": {
        "return": "address The address that was used to sign the message\r"
      }
    }
  },
  "userdoc": {
    "methods": {
      "recoverAddress(bytes32,uint8,bytes32,bytes32)": {
        "notice": "Recovers the address for an ECDSA signature and message hash, note that the hash is automatically prefixed with \"\\x19Ethereum Signed Message:\\n32\"\r"
      }
    }
  }
}