{
  "contractName": "VerifySignature",
  "abi": [
    {
      "constant": true,
      "inputs": [
        {
          "name": "_message",
          "type": "string"
        }
      ],
      "name": "getMessageHash",
      "outputs": [
        {
          "name": "",
          "type": "bytes32"
        }
      ],
      "payable": false,
      "stateMutability": "pure",
      "type": "function"
    },
    {
      "constant": true,
      "inputs": [
        {
          "name": "_messageHash",
          "type": "bytes32"
        }
      ],
      "name": "getEthSignedMessageHash",
      "outputs": [
        {
          "name": "",
          "type": "bytes32"
        }
      ],
      "payable": false,
      "stateMutability": "pure",
      "type": "function"
    },
    {
      "constant": true,
      "inputs": [
        {
          "name": "_signer",
          "type": "address"
        },
        {
          "name": "_ethSignedMessageHash",
          "type": "bytes32"
        },
        {
          "name": "signature",
          "type": "bytes"
        }
      ],
      "name": "verify",
      "outputs": [
        {
          "name": "",
          "type": "bool"
        }
      ],
      "payable": false,
      "stateMutability": "pure",
      "type": "function"
    },
    {
      "constant": true,
      "inputs": [
        {
          "name": "_ethSignedMessageHash",
          "type": "bytes32"
        },
        {
          "name": "_signature",
          "type": "bytes"
        }
      ],
      "name": "recoverSigner",
      "outputs": [
        {
          "name": "",
          "type": "address"
        }
      ],
      "payable": false,
      "stateMutability": "pure",
      "type": "function"
    },
    {
      "constant": true,
      "inputs": [
        {
          "name": "sig",
          "type": "bytes"
        }
      ],
      "name": "splitSignature",
      "outputs": [
        {
          "name": "r",
          "type": "bytes32"
        },
        {
          "name": "s",
          "type": "bytes32"
        },
        {
          "name": "v",
          "type": "uint8"
        }
      ],
      "payable": false,
      "stateMutability": "pure",
      "type": "function"
    }
  ],
  "bytecode": "0x608060405234801561001057600080fd5b5061070b806100206000396000f3fe608060405260043610610067576000357c0100000000000000000000000000000000000000000000000000000000900480631a86b5501461006c57806397aba7f914610176578063a7bb580314610288578063b446f3b214610378578063fa54080114610454575b600080fd5b34801561007857600080fd5b5061015c6004803603606081101561008f57600080fd5b81019080803573ffffffffffffffffffffffffffffffffffffffff16906020019092919080359060200190929190803590602001906401000000008111156100d657600080fd5b8201836020820111156100e857600080fd5b8035906020019184600183028401116401000000008311171561010a57600080fd5b91908080601f016020809104026020016040519081016040528093929190818152602001838380828437600081840152601f19601f8201169050808301925050505050505091929192905050506104a3565b604051808215151515815260200191505060405180910390f35b34801561018257600080fd5b506102466004803603604081101561019957600080fd5b8101908080359060200190929190803590602001906401000000008111156101c057600080fd5b8201836020820111156101d257600080fd5b803590602001918460018302840111640100000000831117156101f457600080fd5b91908080601f016020809104026020016040519081016040528093929190818152602001838380828437600081840152601f19601f8201169050808301925050505050505091929192905050506104e6565b604051808273ffffffffffffffffffffffffffffffffffffffff1673ffffffffffffffffffffffffffffffffffffffff16815260200191505060405180910390f35b34801561029457600080fd5b5061034e600480360360208110156102ab57600080fd5b81019080803590602001906401000000008111156102c857600080fd5b8201836020820111156102da57600080fd5b803590602001918460018302840111640100000000831117156102fc57600080fd5b91908080601f016020809104026020016040519081016040528093929190818152602001838380828437600081840152601f19601f82011690508083019250505050505050919291929050505061056d565b604051808481526020018381526020018260ff1660ff168152602001935050505060405180910390f35b34801561038457600080fd5b5061043e6004803603602081101561039b57600080fd5b81019080803590602001906401000000008111156103b857600080fd5b8201836020820111156103ca57600080fd5b803590602001918460018302840111640100000000831117156103ec57600080fd5b91908080601f016020809104026020016040519081016040528093929190818152602001838380828437600081840152601f19601f82011690508083019250505050505050919291929050505061060a565b6040518082815260200191505060405180910390f35b34801561046057600080fd5b5061048d6004803603602081101561047757600080fd5b8101908080359060200190929190505050610687565b6040518082815260200191505060405180910390f35b60008373ffffffffffffffffffffffffffffffffffffffff166104c684846104e6565b73ffffffffffffffffffffffffffffffffffffffff161490509392505050565b6000806000806104f58561056d565b92509250925060018682858560405160008152602001604052604051808581526020018460ff1660ff1681526020018381526020018281526020019450505050506020604051602081039080840390855afa158015610558573d6000803e3d6000fd5b50505060206040510351935050505092915050565b6000806000604184511415156105eb576040517f08c379a00000000000000000000000000000000000000000000000000000000081526004018080602001828103825260188152602001807f696e76616c6964207369676e6174757265206c656e677468000000000000000081525060200191505060405180910390fd5b6020840151925060408401519150606084015160001a90509193909250565b6000816040516020018082805190602001908083835b6020831015156106455780518252602082019150602081019050602083039250610620565b6001836020036101000a038019825116818451168082178552505050505050905001915050604051602081830303815290604052805190602001209050919050565b60008160405160200180807f19457468657265756d205369676e6564204d6573736167653a0a333200000000815250601c0182815260200191505060405160208183030381529060405280519060200120905091905056fea165627a7a723058209903fb1d94edb12f07c7f9f28c2a0d524a239101650846e8d4e3e1d823148de50029",
  "source": "// SPDX-License-Identifier: MIT\r\npragma solidity >=0.4.22 <0.9.0;\r\n/* Signature Verification\r\n\r\nHow to Sign and Verify\r\n# Signing\r\n1. Create message to sign\r\n2. Hash the message\r\n3. Sign the hash (off chain, keep your private key secret)\r\n\r\n# Verify\r\n1. Recreate hash from the original message\r\n2. Recover signer from signature and hash\r\n3. Compare recovered signer to claimed signer\r\n*/\r\n\r\ncontract VerifySignature {\r\n    /* 1. Unlock MetaMask account\r\n    ethereum.enable()\r\n    */\r\n\r\n    /* 2. Get message hash to sign\r\n    getMessageHash(\r\n        0x14723A09ACff6D2A60DcdF7aA4AFf308FDDC160C,\r\n        123,\r\n        \"coffee and donuts\",\r\n        1\r\n    )\r\n\r\n    hash = \"0xcf36ac4f97dc10d91fc2cbb20d718e94a8cbfe0f82eaedc6a4aa38946fb797cd\"\r\n    */\r\n    function getMessageHash(\r\n        string memory _message\r\n    ) public pure returns (bytes32) {\r\n        return keccak256(abi.encodePacked( _message));\r\n    }\r\n\r\n    /* 3. Sign message hash\r\n    # using browser\r\n    account = \"copy paste account of signer here\"\r\n    ethereum.request({ method: \"personal_sign\", params: [account, hash]}).then(console.log)\r\n\r\n    # using web3\r\n    web3.personal.sign(hash, web3.eth.defaultAccount, console.log)\r\n\r\n    Signature will be different for different accounts\r\n    0x993dab3dd91f5c6dc28e17439be475478f5635c92a56e17e82349d3fb2f166196f466c0b4e0c146f285204f0dcb13e5ae67bc33f4b888ec32dfe0a063e8f3f781b\r\n    */\r\n    function getEthSignedMessageHash(bytes32 _messageHash)\r\n        public\r\n        pure\r\n        returns (bytes32)\r\n    {\r\n        /*\r\n        Signature is produced by signing a keccak256 hash with the following format:\r\n        \"\\x19Ethereum Signed Message\\n\" + len(msg) + msg\r\n        */\r\n        return\r\n            keccak256(\r\n                abi.encodePacked(\"\\x19Ethereum Signed Message:\\n32\", _messageHash)\r\n            );\r\n    }\r\n\r\n    /* 4. Verify signature\r\n    signer = 0xB273216C05A8c0D4F0a4Dd0d7Bae1D2EfFE636dd\r\n    to = 0x14723A09ACff6D2A60DcdF7aA4AFf308FDDC160C\r\n    amount = 123\r\n    message = \"coffee and donuts\"\r\n    nonce = 1\r\n    signature =\r\n        0x993dab3dd91f5c6dc28e17439be475478f5635c92a56e17e82349d3fb2f166196f466c0b4e0c146f285204f0dcb13e5ae67bc33f4b888ec32dfe0a063e8f3f781b\r\n    */\r\n    function verify(\r\n        address _signer,\r\n        bytes32 _ethSignedMessageHash,\r\n        bytes memory signature\r\n    ) public pure returns (bool) {\r\n        return recoverSigner(_ethSignedMessageHash, signature) == _signer;\r\n    }\r\n\r\n    function recoverSigner(bytes32 _ethSignedMessageHash, bytes memory _signature)\r\n        public\r\n        pure\r\n        returns (address)\r\n    {\r\n        (bytes32 r, bytes32 s, uint8 v) = splitSignature(_signature);\r\n\r\n        return ecrecover(_ethSignedMessageHash, v, r, s);\r\n    }\r\n\r\n    function splitSignature(bytes memory sig)\r\n        public\r\n        pure\r\n        returns (\r\n            bytes32 r,\r\n            bytes32 s,\r\n            uint8 v\r\n        )\r\n    {\r\n        require(sig.length == 65, \"invalid signature length\");\r\n\r\n        assembly {\r\n            /*\r\n            First 32 bytes stores the length of the signature\r\n\r\n            add(sig, 32) = pointer of sig + 32\r\n            effectively, skips first 32 bytes of signature\r\n\r\n            mload(p) loads next 32 bytes starting at the memory address p into memory\r\n            */\r\n\r\n            // first 32 bytes, after the length prefix\r\n            r := mload(add(sig, 32))\r\n            // second 32 bytes\r\n            s := mload(add(sig, 64))\r\n            // final byte (first byte of the next 32 bytes)\r\n            v := byte(0, mload(add(sig, 96)))\r\n        }\r\n\r\n        // implicitly return (r, s, v)\r\n    }\r\n}\r\n",
  "sourcePath": "F:\\Blockchain\\digital-signature\\contracts\\VerifySignature.sol",
  "compiler": {
    "name": "solc",
    "version": "0.5.1+commit.c8a2cb62.Emscripten.clang"
  },
  "schemaVersion": "3.4.3",
  "updatedAt": "2021-11-01T03:31:43.867Z",
  "networkType": "ethereum",
  "devdoc": {
    "methods": {}
  },
  "userdoc": {
    "methods": {}
  }
}